:020000022000DC
:10600000780E012065EB02006D7C050039EB020083
:1060100039EB020039EB020039EB0200000000000E
:1060200000000000000000000000000089EC0200F9
:1060300039EB020000000000F5EB020039EB020032
:10604000A9EE0200C9390400A9EE0200A9EE02007F
:10605000A9EE0200A9EE0200A9EE0200A9EE0200DC
:10606000A9EE0200A9EE0200A9EE0200A9EE0200CC
:10607000A9EE0200A9EE0200A9EE0200A9EE0200BC
:10608000A9EE0200A9EE0200A9EE0200A9EE0200AC
:10609000A9EE0200A9EE0200A9EE0200A9EE02009C
:1060A000A9EE0200A9EE0200A9EE0200A9EE02008C
:1060B000A9EE0200A9EE0200A9EE0200A9EE02007C
:1060C000A9EE0200A9EE0200A9EE0200A9EE02006C
:1060D000A9EE0200A9EE0200A9EE0200A9EE02005C
:1060E000A9EE0200A9EE0200A9EE0200A9EE02004C
:1060F000A9EE0200A9EE0200A9EE0200A9EE02003C
:1061000081F0004102E000BF83F0004330B54FEA68
:1061100041044FEA430594EA050F08BF90EA020FD5
:106120001FBF54EA000C55EA020C7FEA645C7FEA68
:10613000655C00F0E2804FEA5454D4EB5555B8BF8B
:106140006D420CDD2C4480EA020281EA030382EAFC
:10615000000083EA010180EA020281EA0303362D8E
:1061600088BF30BD11F0004F4FEA01314FF4801C61
:106170004CEA113102D0404261EB410113F0004F73
:106180004FEA03334CEA133302D0524263EB43032A
:1061900094EA050F00F0A780A4F10104D5F1200EC8
:1061A0000DDB02FA0EFC22FA05F2801841F1000123
:1061B00003FA0EF2801843FA05F359410EE0A5F1F7
:1061C00020050EF1200E012A03FA0EFC28BF4CF028
:1061D000020C43FA05F3C01851EBE37101F00045DE
:1061E00007D54FF0000EDCF1000C7EEB00006EEBEB
:1061F0000101B1F5801F1BD3B1F5001F0CD3490875
:106200005FEA30004FEA3C0C04F101044FEA4452CB
:1062100012F5800F80F09A80BCF1004F08BF5FEA52
:10622000500C50F1000041EB045141EA050130BD32
:106230005FEA4C0C404141EB0101013C28BFB1F544
:10624000801FE9D291F0000F04BF01460020B1FA8F
:1062500081F308BF2033A3F10B03B3F120020CDA62
:106260000C3208DD02F1140CC2F10C0201FA0CF040
:1062700021FA02F10CE002F11402D8BFC2F1200CA5
:1062800001FA02F120FA0CFCDCBF41EA0C0190405B
:10629000E41AA2BF01EB0451294330BD6FEA0404A4
:1062A0001F3C1CDA0C340EDC04F11404C4F120028F
:1062B00020FA04F001FA02F340EA030021FA04F3A1
:1062C00045EA030130BDC4F10C04C4F1200220FAF8
:1062D00002F001FA04F340EA0300294630BD21FA36
:1062E00004F0294630BD94F0000F83F4801306BFFC
:1062F00081F480110134013D4EE77FEA645C18BFF0
:106300007FEA655C29D094EA050F08BF90EA020F86
:1063100005D054EA000C04BF1946104630BD91EA7E
:10632000030F1EBF0021002030BD5FEA545C05D181
:106330004000494128BF41F0004130BD14F58004C0
:106340003CBF01F5801130BD01F0004545F0FE4134
:1063500041F470014FF0000030BD7FEA645C1ABF69
:10636000194610467FEA655C1CBF0B46024650EAA0
:10637000013406BF52EA033591EA030F41F40021CC
:1063800030BD00BF90F0000F04BF0021704730B552
:106390004FF4806404F132044FF000054FF0000127
:1063A00050E700BF90F0000F04BF0021704730B5E8
:1063B0004FF4806404F1320410F0004548BF4042BD
:1063C0004FF000013EE700BF42004FEAE2014FEA12
:1063D00031014FEA02701FBF12F07F4393F07F4FED
:1063E00081F06051704732F07F4208BF704793F0F0
:1063F0007F4F04BF41F40021704730B54FF4607403
:1064000001F0004521F000411CE700BF50EA010205
:1064100008BF704730B54FF000050AE050EA0102AE
:1064200008BF704730B511F0004502D5404261EB1E
:1064300041014FF4806404F132045FEA915C3FF45F
:10644000D8AE4FF003025FEADC0C18BF03325FEAFC
:10645000DC0C18BF033202EBDC02C2F1200300FAAD
:1064600003FC20FA02F001FA03FE40EA0E0021FAD2
:1064700002F11444BDE600BF70B54FF0FF0C4CF4C0
:10648000E06C1CEA11541DBF1CEA135594EA0C0F72
:1064900095EA0C0F00F0DEF82C4481EA030621EAAD
:1064A0004C5123EA4C5350EA013518BF52EA0335E8
:1064B00041F4801143F4801338D0A0FB02CE4FF09A
:1064C0000005E1FB02E506F00042E0FB03E54FF0CA
:1064D0000006E1FB03569CF0000F18BF4EF0010EC2
:1064E000A4F1FF04B6F5007F64F5407404D25FEABE
:1064F0004E0E6D4146EB060642EAC62141EA555171
:106500004FEAC52040EA5E504FEACE2EB4F1FD0CB2
:1065100088BFBCF5E06F1ED8BEF1004F08BF5FEA30
:10652000500E50F1000041EB045170BD06F00046E2
:1065300046EA010140EA020081EA0301B4EB5C048F
:10654000C2BFD4EB0C0541EA045170BD41F4801187
:106550004FF0000E013C00F3AB8014F1360FDEBFAC
:10656000002001F0004170BDC4F10004203C35DA88
:106570000C341BDC04F11404C4F1200500FA05F30B
:1065800020FA04F001FA05F240EA020001F00042AC
:1065900021F0004110EBD37021FA04F642EB060122
:1065A0005EEA430E08BF20EAD37070BDC4F10C044C
:1065B000C4F1200500FA04F320FA05F001FA04F210
:1065C00040EA020001F0004110EBD37041F10001FC
:1065D0005EEA430E08BF20EAD37070BDC4F1200507
:1065E00000FA05F24EEA020E20FA04F301FA05F26F
:1065F00043EA020321FA04F001F0004121FA04F217
:1066000020EA020000EBD3705EEA430E08BF20EAE6
:10661000D37070BD94F0000F0FD101F00046400020
:1066200041EB010111F4801F08BF013CF7D041EAA2
:10663000060195F0000F18BF704703F000465200A6
:1066400043EB030313F4801F08BF013DF7D043EA77
:106650000603704794EA0C0F0CEA135518BF95EA2D
:106660000C0F0CD050EA410618BF52EA4306D1D1B4
:1066700081EA030101F000414FF0000070BD50EAD3
:10668000410606BF1046194652EA430619D094EA5D
:106690000C0F02D150EA013613D195EA0C0F05D147
:1066A00052EA03361CBF104619460AD181EA03019B
:1066B00001F0004141F0FE4141F470014FF0000053
:1066C00070BD41F0FE4141F4780170BD70B54FF0EE
:1066D000FF0C4CF4E06C1CEA11541DBF1CEA13556E
:1066E00094EA0C0F95EA0C0F00F0A7F8A4EB050450
:1066F00081EA030E52EA03354FEA013100F0888047
:106700004FEA03334FF0805545EA131343EA12630F
:106710004FEA022245EA111545EA10654FEA0026C4
:106720000EF000419D4208BF964244F1FD0404F57D
:10673000407402D25B084FEA3202B61A65EB0305D9
:106740005B084FEA32024FF480104FF4002CB6EB96
:10675000020E75EB030E22BFB61A754640EA0C0016
:106760005B084FEA3202B6EB020E75EB030E22BF56
:10677000B61A754640EA5C005B084FEA3202B6EB97
:10678000020E75EB030E22BFB61A754640EA9C0056
:106790005B084FEA3202B6EB020E75EB030E22BF26
:1067A000B61A754640EADC0055EA060E18D04FEAE4
:1067B000051545EA16754FEA06164FEAC30343EA84
:1067C00052734FEAC2025FEA1C1CC0D111F4801F51
:1067D0000BD141EA00014FF000004FF0004CB6E74A
:1067E00011F4801F04BF01430020B4F1FD0C88BFE9
:1067F000BCF5E06F3FF6AFAEB5EB030C04BFB6EBF4
:10680000020C5FEA500C50F1000041EB045170BDE6
:106810000EF0004E4EEA113114EB5C04C2BFD4EB13
:106820000C0541EA045170BD41F480114FF0000E97
:10683000013C90E645EA060E8DE60CEA135594EA13
:106840000C0F08BF95EA0C0F3FF43BAF94EA0C0F16
:106850000AD150EA01347FF434AF95EA0C0F7FF48B
:1068600025AF104619462CE795EA0C0F06D152EADF
:1068700003353FF4FDAE1046194622E750EA4106C3
:1068800018BF52EA43067FF4C5AE50EA41047FF4D4
:106890000DAF52EA43057FF4EBAE12E74A0011D286
:1068A00012F5001211D20DD56FF47873B3EB62526A
:1068B0000ED44FEAC12343F0004343EA505323FA76
:1068C00002F070474FF00000704750EA013002D1EB
:1068D0004FF0FF3070474FF00000704753B94AB98E
:1068E000002908BF00281CBF4FF0FF314FF0FF30D8
:1068F00000F00CB8ADF1080C6DE904CE00F008F81A
:10690000DDF804E0DDE9022304B07047704700BF02
:106910002DE9F04786468C460846089E1546744683
:106920001946002B40F0C2808542B2FA82F245D966
:106930004AB1C2F1200300FA02FC2EFA03F395409B
:1069400043EA0C0C94404FEA154EA8B2BCFBFEF88B
:10695000230C0EFB18CC08FB00F943EA0C439945C5
:1069600028D9EB1808F1FF3704D2994502D9A8F1CC
:1069700002072B44A3EB0903A4B2B3FBFEFC0EFBFE
:106980001C330CFB00F044EA0344A04214D92C1938
:106990000CF1FF3304D2A04202D9ACF102032C4423
:1069A000241A43EA07401EB1D440002334607360C8
:1069B000BDE8F0874746DDE76346F1E792BB431B3E
:1069C00001214FEA154EAFB2B3FBFEFC200C0EFBCB
:1069D0001C330CFB07F840EA0343984562D9EB18D7
:1069E0000CF1FF3004D2984502D9ACF102002B44DF
:1069F000A3EB0803A4B2B3FBFEFC0EFB1C330CFBA1
:106A000007F744EA0344A7424ED92C190CF1FF338F
:106A100004D2A74202D9ACF102032C44E41B43EA9E
:106A20000040C0E7C2F1200320FA03F195409040F6
:106A30002EFA03F303434FEA154EAFB2B1FBFEFC4F
:106A40000EFB1C10190C0CFB07F841EA00418845AD
:106A500004FA02F422D969180CF1FF3004D28845F7
:106A600002D9ACF102002944A1EB08019BB2B1FBB1
:106A7000FEFC0EFB1C110CFB07F743EA01439F428F
:106A80000ED9EB180CF1FF3104D29F4202D9ACF1C0
:106A900002012B44DB1B41EA004192E76046E3E739
:106AA0006146F7E76046A3E76346B7E7834206D946
:106AB00016B9002108467BE7C6E900E0F9E7B3FA1A
:106AC00083F78FB9834201D3724508D8BEEB020425
:106AD00060EB030301209C461EB9002168E738469D
:106AE000FAE7C6E9004CF8E7C7F1200CBB4022FAF0
:106AF0000CF41C432EFA0CF120FA0CF3B8400143BD
:106B00004FEA14490EFA07F5B3FBF9F81FFA84FEB1
:106B100009FB18300B0C08FB0EFA43EA00439A45B8
:106B200002FA07F240D9E31808F1FF3004D29A457F
:106B300002D9A8F102002344A3EB0A0389B2B3FBF4
:106B4000F9F809FB183308FB0EFE41EA03418E45B4
:106B50002CD9611808F1FF3304D28E4502D9A8F16F
:106B60000203214443EA0040A0FB0298A1EB0E017E
:106B70004145CE46434602D306D14D4504D2B9EB3A
:106B8000020E68EB04030138002EA6D0B5EB0E020E
:106B900061EB030101FA0CFC22FA07F34CEA030350
:106BA000F940C6E9003198E74046C5E74346D9E7D2
:106BB00010F8012B11F8013B012A28BF9A42F7D0A7
:106BC000D01A7047034611F8012B03F8012B002A55
:106BD000F9D17047034613F8012B002AFBD1181A8C
:106BE0000138704700000000F7B5404DD5F85C3122
:106BF000996811F0010124D101AA40F6034009F07F
:106C00003FF9044600286DD1019CE3681B78ABB9BD
:106C10000AF0D8FBBFF35B8FD5F8D430BFF35B8F9E
:106C200005F1D40203F00903BFF35B8F52E8001FA4
:106C300042E800300028F9D1BFF35B8F204620F0F6
:106C40007DF901AA002141F2030009F019F9044677
:106C5000002847D1019B264EDA68D2F80100D2F80D
:106C6000051003C6184620F069F9214601AA41F231
:106C7000010009F005F90446A0BB0198C3685A78E1
:106C800085F870205A88A5F872201A7985F8712045
:106C9000B3F80720A5F87420B3F80530A5F87630CE
:106CA00020F04CF9214601AA41F2020009F0E8F86F
:106CB0000446B8B9019FFA68531C413218685968F4
:106CC000344603C4083393422646F7D1094831F0CD
:106CD000AAF8384620F032F995F87C305B060BD4E0
:106CE0006FF01204204603B0F0BD00BF300000205A
:106CF000A8000020B000002001AA002142F20300F9
:106D000009F0BEF804460028ECD1019BB64EDA68C3
:106D1000D2F80100D2F8051003C6184620F00EF98B
:106D2000214601AA42F2020009F0AAF8044600280E
:106D3000D8D1019CE368B3F8012091B249B1D97868
:106D400039B1A5F80421DA78114606F128003FF0A0
:106D50003CFC204620F0F2F895F87C6016F0200606
:106D600018D1022140F66D4009F02EF804460028A3
:106D700000F0CC8002210C3035F01FF901230370A4
:106D800046702146324640F66D4009F079F80446D7
:106D90000028A7D195F89C301F0712D501AA002121
:106DA00042F21C0009F06CF8044600289AD10198C0
:106DB000C368D3F80120D3F80530C5E9382320F0A3
:106DC000BDF895F8D8309E0624D50DF1020168462D
:106DD00031F04AFB0446002884D1042142F2240009
:106DE00008F0F2FF0646002800F0908004210C30E5
:106DF00035F0E3F8BDF800300380BDF80230438081
:106E00002246314642F2240009F03AF804460028AE
:106E10007FF468AF95F8D8305C0610D501AA002140
:106E200042F22A0009F02CF8044600287FF45AAFF9
:106E30000198C3685B7885F8203120F07FF808213D
:106E400042F2010008F0C0FF044600285ED008218D
:106E50000C3035F0B2F895F8D81011F0400F02461A
:106E600040F2022308BF032388074CBF43F02C00E5
:106E700043F00C0095F8D9308F0648BF40F0400031
:106E800013F0090F95F8A23018BF40F4006003F02A
:106E90000603CE0748BF40F01000062B08BF40F4A1
:106EA000C070002131F051F92146002242F2010068
:106EB00008F0E6FF044600287FF414AF95F87C3014
:106EC000B5F80411980624D4C9B901AA41F2050005
:106ED00008F0D6FF044600287FF404AFB5F804316B
:106EE000019C4BB9E368B3F80120A5F804219A8806
:106EF0003E4811463FF069FB204620F01FF808216C
:106F000040F6014008F060FF044638B96FF06804AD
:106F1000E8E60029F3D16FF00404E3E608210C3021
:106F200035F04BF895F8D830D907024653BF4FF0EB
:106F300000512BA1D1E900012D4831F006F921467D
:106F4000002240F6014008F09BFF044600287FF431
:106F5000C9AE014601AA4FF6014008F091FF044670
:106F600020BB01981FF0EAFF214601AA4FF602401C
:106F700008F086FF0446C8B90198C368B3F8013029
:106F8000A5F8C1301FF0DAFF95F8C1305B070DD5C9
:106F900001AA21464FF6034008F072FF30B901986C
:106FA000C3685B7885F8C0301FF0C8FF31F0D5FCAE
:106FB000044600287FF496AE0BF030FC044600280F
:106FC0007FF490AEEB79002B3FF48CAE082109489A
:106FD00031F021F809F0F0FA84E600BFAFF3008049
:106FE0009088000200800020080100203801002065
:106FF00010880002040100202DE9F843D0E90C3587
:10700000D0F82C805C193034A0450F46164619D8AC
:107010001D4DA3FB05011AA3D3E90023FFF75EFC76
:107020000346A4EB0800A0FB050123F07F4414A352
:10703000D3E90023FFF752FC20F07F403C60306032
:10704000BDE8F883DFF840900DA3D3E90023A8FB47
:107050000901FFF743FC044605F1300008A3D3E91A
:107060000023A0FB0901FFF739FC24F07F4420F046
:107070007F403C603060BDE8F88300BFAFF3008024
:107080008D49FD1A0700000000CA9A3B000000006D
:107090009FED0D7B124B134A1348144910B483ED36
:1070A000007B9FED0B7B82ED007B9FED0B7B104BFC
:1070B0004FF0FF34002281ED007B04601A605DF820
:1070C000044B12F039BC00BFFFFFFFFFFF1F0000A1
:1070D00000000000000000001F0000000000000091
:1070E00098010020D82B0020349A00209001002025
:1070F0002C9A002000000000002800F05F812DE99C
:10710000F04FB54C94F86A2012F001058DB040F0B4
:10711000A78194F82500FF2300F0030084F82630AF
:107120001BF032FF94F86A00420727D494F8292014
:1071300094F8353004EB820204EB8303D66AD3F86B
:10714000388086B1A448314614F07AFB33785B0668
:1071500005D506210FF020FB002800F083819E4812
:10716000414614F06DFB337813F00E0F40F0B780FA
:10717000236A93B10C200DB0BDE8F08F2A4604F1CC
:107180006B01C0F3C0001CF09BF8FF2884F82600B8
:10719000CCD028461BF03EFFC8E711F0F7FC814633
:1071A000002800F0718111F0FDFC8246002800F0FB
:1071B000688114F073FF0546002800F06781D0F85D
:1071C00088004FF6FF732B8505F11C0B002800F09B
:1071D0004F8105F1780105F17C020FF0E9FAB5F86D
:1071E00076307E4A23F4EF6323F0070343F4887379
:1071F00043F00103A5F876301346D2F80120C5F814
:107200009B21C5F8A12113F8012B9B88A5F89F317C
:10721000A5F8A53195F89A3102F0010262F3000356
:1072200062F3410385F89A3195F8393003F03F0352
:1072300063F07F0385F8393095F88E3023F007032B
:1072400085F88E3095F83C3023F00703002785F849
:107250003C304FF4C023C5F888312846C5E9127781
:10726000C5F88870A5F88C706F86C5F82E7085F803
:107270003B702F65A5F88E71A5F8847117F0DCFCC2
:1072800085F85071C5F8549115F0C6F995F8943108
:1072900060F3020385F8943115F0C4F995F8943140
:1072A00060F3C50385F8943195F8803167F34103A5
:1072B00085F880310121284615F014FE05F1D4002F
:1072C00017F042FAC4E9189AC4F820B0C5E9057766
:1072D0002F70ED611DF026F9002840F0C58094F86C
:1072E00024300121C3F342030DF12B008DF82B3024
:1072F0000FF0FCFB0246002862D098F801103046DF
:1073000014F060F831233649A360364BB4F8687046
:10731000A0FB01010025C01841F107012CA3D3E90E
:107320000023C4E9055525706560E560FFF7D6FACE
:10733000206110F00FFF00F109083FB9357805F022
:107340000F05A5F10105B5FA85F56D0994F824003E
:10735000236965F3000010F0010584F824004BD088
:10736000214A0992002010600225204A204F0493F0
:107370000BAE019305920321CDE90200069443462A
:107380000090089607972A460B9510F081FD31462C
:1073900011F0C2FCA0B9174905914AF2D833009305
:1073A000CDE90300CDE9010007970896069443460E
:1073B000012203210B9510F037FD43E013F04EBF7F
:1073C000236A002B3FF4D6AE13F006FFD2E600BFCF
:1073D0008D49FD1A07000000EC9A002097BE0600B8
:1073E00000CA9A3B8C49FD1AE09A002041B4030080
:1073F000E182030055AF03002B4A2C48049303F2AB
:1074000047130694029591211360A7FB000301FB2B
:107410000731274B0793274B05934FF6FF730992CC
:10742000022703930BAE1EA3D3E900230B97089604
:10743000FFF754FA4346CDE900503A462846032167
:1074400010F026FD314611F067FC0028B8D194F801
:107450006A3043F0010384F86A3014F013FC60B121
:10746000002088E6122086E613F0B6FE032082E6AE
:1074700005F18000C5F88800ABE601201BF066FD31
:10748000EEE7484611F088FB072074E6504611F0FD
:107490008FFB484611F080FBF6E700BFAFF300809A
:1074A0008D49FD1A07000000E09A0020002AE784B9
:1074B000E182030041B4030070B590F824308AB033
:1074C000C3F342030D46044601210DF12300164685
:1074D0008DF823300FF00AFB71780246284613F02E
:1074E00071FF1F491F4AA0FB0131981841F10701A4
:1074F00019A3D3E90023FFF7F1F923699842054660
:1075000021D21B1A00220192174A0293174BA21A8A
:10751000A3FB02320221920900230A4409AE099119
:1075200013490591CDE903330321D2B206960093A6
:10753000184610F00DFD314611F0EEFB38B925610B
:1075400000200AB070BDFBD9C21A0023DBE70C2073
:107550000AB070BDAFF300808D49FD1A070000002E
:1075600000CA9A3B8C49FD1AEC9A002089888888C9
:10757000E18203000000000038B5194C9DF810E0CE
:1075800094F848C01CF0010523D163F3420C40017C
:1075900094F83230A1874FEACE0E0EF0180E00F0AC
:1075A000200040EA0E0023F0380303430D4884F81E
:1075B00032309121A2FB000384F848C001FB023164
:1075C00005A3D3E90023FFF789F9C4E91000284691
:1075D00038BD0C25284638BD8D49FD1A070000002E
:1075E000E02B0020002AE78410B504469DF808002F
:1075F00022844FEA411CC000A17D00F018000CF06D
:10760000200C4CEA000C0C4821F038014CEA010C2B
:10761000A3FB0002912184F816C001FB032104A3FF
:10762000D3E90023FFF75AF9606210BDAFF3008081
:107630008D49FD1A07000000002AE78400000000C1
:107640002DE9F047044600F1350190F8480094F820
:1076500032305B4DDFF88081C0F3400060F3861369
:107660008CB084F8323010F0C7FD94F83220A38F2C
:107670005448E46102F07902002784F83220912115
:10768000A3FB0002C4E90577277001FB03214AA38D
:10769000D3E90023FFF722F9651B626C4A4B676050
:1076A000AD08A3FB053502F10903984298BF3A469D
:1076B000C5F3470522644FF031028CBF19460146DD
:1076C000A26005EB4502E760216148F822100646FA
:1076D00010F040FD236A00F109074FEA450A002B2C
:1076E0004AD00DF12C09AA4408EB8A030993CDF87E
:1076F00020900694A38F33484FF00008A3FB0002AC
:10770000CDF80C80912101FB0321236904932F4BB9
:1077100007932F4B05934FF0020A27A3D3E90023C9
:10772000CDF82CA0FFF7DAF8104619464FF47A721C
:107730000023FFF7D3F80435EDB2CDE90160032152
:107740003B462A46CDF80080404610F0A1FB494652
:1077500011F0E2FA60B994F8483043F0010384F87C
:10776000483014F043F808B300200CB0BDE8F087AF
:107770000C200CB0BDE8F0870DF12C09CDE90A33DF
:1077800021694B460AAA032001F096F90028AAD1E4
:107790000B99104808A3D3E90023A1FB0001FFF7D0
:1077A0009DF80A9B20F07F471F449CE750461BF042
:1077B000CDFBD9E7AFF300808D49FD1A070000002B
:1077C000E02B0020002AE784BD86F21AE182030044
:1077D00075BA030000CA9A3B7C9B002000000000A1
:1077E0002DE9F04F05468BB08B46012002219A46C9
:1077F00014461FF03BF900220221814601200FF0C0
:1078000027F83B494FF4D47228460EF0B1FF461DCD
:10781000F6B2384B009532460121002010F0B0FB43
:1078200010F0FD0F0CD0344A3449354840F62F0390
:107830002EF058FC404080F311884FF0030002DF27
:10784000304BA4FB0348204627A3D3E9002341463D
:10785000FFF744F82C4B20F07F47A7FB03310722AA
:10786000E01A02FB071168EB01014FF47A72002362
:10787000FFF734F8CDE90170CDF800B00895069512
:10788000296995F9394021480491214931EA2401B7
:1078900028BF014605911F4C07944FF6FE710391D6
:1078A000534632460121002010F0BEFA10F0FD0FC1
:1078B0000CD0114A1149124840F644032EF012FC34
:1078C000404080F311884FF0030002DFB9F1000F50
:1078D00002D10BB0BDE8F08F0122022110460BB09F
:1078E000BDE8F04F0EF0B4BF8D49FD1A070000004F
:1078F000302C002045C0030038920600FC920600A0
:10790000D48C060000CA9A3B8D49FD1ABD200400A4
:1079100065220400EDBF03002DE9F043C469228D08
:107920004FF6FF739A428DB000F0888005462046DE
:1079300017F07AFC95F82830012B00F00F81022B0C
:1079400000F00281002B00F0E18094F85071002FCC
:1079500040F0FD80E68DB4F83080002E71D1AA8C05
:1079600008F101060023CDE90A33B6B2002A70D02F
:1079700094F93930002BC0F248810023A4F88A31F1
:1079800095F82630D90740F1EF800023A4F88E3116
:107990000DF127023146204617F08AF9743000F0C5
:1079A0004681B4F888312BB1B34240F20D819B1B64
:1079B000A4F88831B4F884312BB1B34240F2FB8093
:1079C0009B1BA4F88431258E17B9A84500F0EA80E6
:1079D0000135ADB294F8D13013F001065AD1DDE98A
:1079E0000A130A46002B40F0ED80002900F0DC80ED
:1079F0001E461846228DE4690694CDE903570532E8
:107A0000A74D0290CDE90016D2B2012100200595C4
:107A100010F09EFA10F0FD0F10D011F0A7F984427B
:107A20000CD0A04AA049A14840F215532EF05AFBB1
:107A3000404080F311884FF0030002DF0DB0BDE835
:107A4000F083AA8C46440023CDE90A33B6B2002A5B
:107A50008ED195F82630DA0797D4B4F88A31002B06
:107A600000F08280B34240F2FA809B1BA4F88A3176
:107A7000B4F88E31002B8BD09E4280F0DE809B1BB1
:107A80009BB20022062BA4F88E31228600F2AC8035
:107A900001277DE794F939206FF30003002A84F869
:107AA000D13077DB94F87600C0F3C00100F0070016
:107AB0001CF09EFBB4F86E20B4F86C30134403F253
:107AC000D51303447A4A7B480721E3FB0021104683
:107AD00071A3D3E90023FEF701FFDDE90A1320F0CB
:107AE0007F4220692261904235BF161A801A002019
:107AF00000260A46002B7FF47DAF56EA010C7FF486
:107B000079AF002850D019461E4673E794F88E309E
:107B100003F01803182B7FF418AFA18DB4F8862159
:107B20008B1D9A42C4BF931F5B1AB4F88211CCBF5D
:107B30009BB21346994200F08C80A4F88231A4F8DD
:107B40008431A4F8882100E73D2784F85071394634
:107B500020460DB0BDE8F04314F082BE0023A4F827
:107B60008831A4F88431F0E6B4F88E31002B83D14B
:107B7000628DB4F88C3140F2E24101FB02F242F234
:107B8000107101FB0323013BB3FBF2F39BB2A4F89A
:107B90008E316FE794F87700012100F007001CF0A8
:107BA00029FB87E73D4615E7002D4BD000261146FF
:107BB000304633461EE70023A4F88431204617F0F0
:107BC00017F900E7304615E711F038F801460028AC
:107BD0003BD00023A4F88831238DC3801B2303717D
:107BE000006810F0F5FFE5E694F939309342BFF6EE
:107BF000CFAEB8F1000F7FF44BAFD4F878315A080C
:107C0000DB0743D4C4F87821C2E628460AAA0BA9A8
:107C100004F1D409FFF7F0F9484616F0D7FD18B380
:107C2000484616F0D3FD18B300232386A5E69DF839
:107C30002710204614F014FE00E70821204614F017
:107C40000FFEFBE6002FB1D1F8E60123A4F888313E
:107C5000B0E6B4F8881100297FF477AE6FE73E21D3
:107C6000204614F0FDFDE9E6FF2014F0B1FDD7E752
:107C70000246D4E91E010EF0B3FD0028D4D194F8D9
:107C80003C30580744BFA38D238676E642F000427D
:107C9000C4F87821FCE600BF8D49FD1A07000000FA
:107CA000ADBF03003892060048930600D48C06004E
:107CB0008C49FD1A00CA9A3B2DE9F04F87B0CDE9F7
:107CC0000432BDF8442003780292BDF84820BDF884
:107CD0004080BDF84C50468EB0F82E90B0F814B1EC
:107CE000019104460392002B00F0CB80013EB6B216
:107CF000A368D4F80C71721B92B2002B009209DABF
:107D0000E168626823F0004391422CBF7F18BF18DE
:107D1000A360FF1A009A638D13FB02F39BB2B3FBBF
:107D2000F8F218FB02F080B283421FFA82FA80F068
:107D30009780C01A40F2E2425D4902FB00F0A0FBCE
:107D4000010159A3D3E90023FEF7C8FD20F07F40CD
:107D50000744D94494F839304D44AD1B554440F2A2
:107D6000E246DB09E58506FB08F500F08E80226C13
:107D70000099A36CDFF838B102FB1133A3641CF047
:107D800023FC814694F87401C0F342001CF01EFCF1
:107D9000059B814406FB03F305FB09F9236509F5FF
:107DA0007429444B09F23F29A3FB09394FEA99434F
:107DB00003FB0AF02364A5EB0309A36C6A080344E0
:107DC000963A934228BF1346C4E911230023C4F80E
:107DD0007C31A0FB0B0134A3D3E90023FEF77EFD29
:107DE000049B3F1A3448A0FB0330800A06FB00F0D6
:107DF0002DA3D3E90023A0FB0B01FEF76FFD20F0BC
:107E00007F46029BA385039BA4F88C31294620461C
:107E1000A4F82A8016F088FF284BA18D2B44881DDA
:107E2000B3FBF5F39AB29042A4F8862102D2521A1B
:107E3000063A92B2019BA4F8822113B10023A4F860
:107E40008E313B464A4631462046FFF7C9FC94F83E
:107E5000803143F0010384F8803107B0BDE8F08F32
:107E600008FB1231124840F2E24389B203FB01F1F0
:107E7000A1FB00010CA3D3E90023FEF72FFD3F1A5D
:107E800067E74E445E44B6B232E7049B0848A3FB62
:107E9000000105A3D3E90023FEF720FD20F07F4673
:107EA000A9460136ADE700BF8D49FD1A0700000065
:107EB00000CA9A3B83DE1B435917B7D17FC3C90160
:107EC0002DE9F04F04460B68077F1668D3F800A031
:107ED000638CD0F81E0095B015464A7CADF84C3046
:107EE000FF2AC7F3801389460D9212908DF83F3018
:107EF00072D198461A4612AB93E803000DF1400B7D
:107F00001090ADF84410F8090AF1710127680A9140
:107F10005B460C900B9714F08BFB0A99002843D119
:107F200096F89A310C9A0A9068F3410362F30003C1
:107F300086F89A311098BBF80430C6F8A101A6F86B
:107F4000A531DAF87130C6F89B318B88A6F89F31DD
:107F5000E38D94F83010A9722B81D4F82A306B602D
:107F6000D4F83A30AB6105F1180094F83E30037153
:107F700005210EF0BBFD6B7F00F03F0060F30503B1
:107F80006B7794F83F30C3F30401A977A18EE981A0
:107F9000012803F01F0389B206D91B3303F01F0326
:107FA0000B2B01D80A9A59BB0022CAF8142095F865
:107FB00020300B9862F3000385F82030E568012635
:107FC0002146267110F0FAFD28682E71294610F01E
:107FD000FFFD15B0BDE8F08F0DF1400B10460DF11F
:107FE0003F015A461AF028FD9DF83F80277F08F18F
:107FF00002085FFA88F88DF83F8008F0010282E7F6
:10800000D9F800305A60E38E2B82EB8940F2E248C7
:1080100008FB03F71146638E0A93304616F098FE6C
:1080200094F83F3096F874215B0963F3430286F8B5
:1080300074211CF0C9FA0C9096F87401C0F3420048
:108040001CF0C4FA0C9B184407FB00F0BA4B00F577
:10805000742000F23F20A3FB00307B08800C963B8D
:108060006862AB6294F8313008FB03F3AB63238F93
:10807000A6F88C313946304616F056FEAF4BB04A62
:10808000C6F890213B44B3FBF7F39AB2A6F88621D9
:10809000298A881D824204DDC1F57F41FA310A44F4
:1080A00092B2A6F882216B68C6F87831234613F89D
:1080B0001C2FC2F34018DA0700F104814FF48073DB
:1080C000A3839AF826001BF011FA04F12B03002871
:1080D00000F0EE80626AC4F82B20228D9A800D9BFE
:1080E000FF2B00F0E980BDF84C301298A4F829303D
:1080F000C4F82500BBF80430A4F8233010989DF88C
:108100003F30C4F81F00A377EB8963862B8AA386D0
:10811000B6F88C31E38696F87431C3F3420384F8E1
:108120003830304613F0C6FFA881E08021460B9816
:10813000D9F8044010F042FDAB89E3801C23D4F849
:1081400000B02371B8F1000F40F0D18084F81C809A
:108150002146584610F03CFD95F85B00B5F850807C
:10816000B5F85240012100F007001CF043F84444E8
:1081700004F2D514DFF8D481044483467148072102
:10818000E4FB080131230024B360746068A3D3E9E1
:108190000023F460FEF7A2FB20F07F4030616D6A9F
:1081A0000A9A7D1BD9F80C7040F2E24303FB027778
:1081B0000221224601200EF04BFB504613F0FCFA40
:1081C00007F2B2470246A7EB0B07A7FB08011746C9
:1081D00057A3D3E90023FEF781FBCDF804A0D9F81B
:1081E00008305949009120F07F48BA1C3A3BD2B27E
:1081F0002046434401210FF005FF012800F0828052
:108200009AF82430DB076AD4304613F053FF4F4B03
:10821000A5FB035A044646A3D3E90023284651464A
:10822000FEF75CFBD9F80830494A0792A3F13A09F6
:10823000484B069620F07F47A7FB0331E81A464BD0
:10824000059340F2D113089333694FF0000BCDE949
:1082500003B34FF0070303FB07116AEB01014FF46F
:108260007A720023FEF73AFB0534E4B2CDE90170DF
:10827000CDF800804B462246012158460FF0D4FD30
:1082800010F0FD0F0CD0354A354936484FF4E973EC
:108290002DF028FF404080F311884FF0030002DFEB
:1082A0000122022110460EF0D3FA15B0BDE8F08F7E
:1082B000C4F82B00988012E70022C4F82520A4F807
:1082C000292017E7254A28492648F8232DF00AFFD8
:1082D000404080F311884FF0030002DFEEE60023F8
:1082E00001220093184611460FF04AFE8CE76B7F7F
:1082F00043F040036B77281D1AF096F94FF0010800
:10830000E88323E710F032FD82453FF479AF134A4A
:108310001649144840F279232DF0E4FE404080F3E2
:1083200011884FF0030002DF6AE700BFAFF300805F
:108330008D49FD1A0700000083DE1B437FC3C9017E
:10834000404B4C008C49FD1A8120040000CA9A3B26
:10835000512004008D49FD1ABD200400E897060055
:10836000FC920600D48C0600988F06004498060004
:108370002DE9F04F8DB01F46BDF860300793CDE971
:108380000501BDF868309DF85C90BDF864B00493B9
:108390000020164613F084FC002800F0658109F0E7
:1083A0000108044640460FF017FF0390B8F1000F94
:1083B0006DD1169B03993A46404614F039F90028CE
:1083C00040F06381236A04F11C020892002B65D0FF
:1083D000D4F820A0DAF8005007F0010B9AF85A0000
:1083E000C0F3C00100F007001BF002FFBAF8521002
:1083F000BAF8502000F2D5130A441344CC48CD4AB1
:108400000721E3FB00211046C7A3D3E90023FEF7B1
:1084100065FA20F07F40286130461AF0D7FD94F8C5
:1084200033306FF3410384F83330FF2384F8343062
:10843000002E00F01D81A9F10203012B40F22981D9
:1084400094F84810089869F3420184F8481094F8A9
:1084500033106BF30001DDE9052384F8331016991E
:108460000968616216998988218504992186009698
:108470000021FFF7B9F860641CF054F8002840F0C0
:1084800013812046FFF7DCF80DB0BDE8F08F062120
:108490000EF082F900288CD11220F5E710F076FB5F
:1084A0000990002800F0738113F0F8FD05460028BC
:1084B00000F06A8120300EF02DFB05F11C0A002827
:1084C00040F01D81032105F124001BF045FD079BB1
:1084D000D5F888006B854FF6FF73A5F82CB02B8577
:1084E000002800F0198105F17C0205F178010EF0F9
:1084F0005FF9B5F8763023F4EF6323F0070343F414
:10850000887343F00103A5F8763095F88E304FF06C
:10851000000B23F0070385F88E300121C5F888B0E1
:10852000A5F88CB0284614F0DDFCC5F82EB0A5F8EF
:1085300032B005F134001AF021F895F8393060F3C3
:108540000503012185F839300DF12F001BF004FDE2
:10855000049B9DF82F20A5F88C31774B85F83BB014
:10856000A3FB0213DB0803EB4303A2EB830295F8A2
:108570003930A98DA5F88EB103F03F0385F8393065
:1085800095F83C30A5F884B1053223F0030385F853
:108590003A20079A85F83C3040F2E24B674B0BFBE0
:1085A00002FB4FF4C0225B44C5F88821881DB3FB51
:1085B000FBF39AB28242A5F8862102DD063A521AEE
:1085C00092B2A5F88221284616F036FB5946284675
:1085D00016F0AAFB099BC5F85431002385F85031E9
:1085E00014F01AF895F8942160F3020285F89421AA
:1085F00014F018F895F8942160F3C50285F89421D9
:1086000095F88021002363F3410285F8802105F16C
:10861000D40016F099F895F89A21169907F0010BF5
:108620006BF3410285F89A213122AA600023169A41
:108630006B60EB601268C5F8A12195F89A218988D2
:10864000A5F8A51169F30002039985F89A210A6833
:10865000C5F89B218A88A5F89F21C4F820A0C5E908
:1086600005332B70ED61B9E60C200DB0BDE8F08F3D
:108670001BF0ECF800283FF4DEAE1699384632467F
:108680001AF01EFE84F83400D5E60B200DB0BDE8CC
:10869000F08F00201AF0BEFC94F8333043F0020350
:1086A000C14684F83330CBE6256AEB6E63B1244AC9
:1086B0002449254840F21D432DF014FD404080F32D
:1086C00011884FF0030002DF05F1600105F15C0045
:1086D0000EF072F8064600283AD02F68EE66D7F8FA
:1086E0005451002D42D0284610F056FA384613F067
:1086F000DBFC0023032023620DB0BDE8F08F104A9D
:1087000012491148C1232DF0EDFC404080F311883F
:108710004FF0030002DFD5E605F18000C5F88800C0
:10872000E1E600BFAFF300808D49FD1A07000000AD
:1087300000CA9A3B8C49FD1AABAAAAAA7FC3C901F9
:10874000749806002C910600D48C0600308D06002B
:10875000104A1149114840F21F432DF0C3FC40401C
:1087600080F311884FF0030002DFB6E7094A0A4997
:108770000A4840F226432DF0B5FC404080F31188B2
:108780004FF0030002DFAEE7099810F005FA07206A
:108790007AE600BF7498060088920600D48C060022
:1087A0002DE9F04F04468DB090F81C80238D406A6F
:1087B000ADF82C30E307C8F3C0170E461546C8F3D2
:1087C00040180A9000F10D810023A383B37C707CD4
:1087D00013F001031CBFD4F81E30C4F82B3004F191
:1087E0002B0214BF638CC4F82B30FF28938004F154
:1087F000250904F11F0240F0E5800023BDF82C108C
:108800000A98C4F82530A9F80430A777C4F81F00E7
:1088100091803368D3F80090EB8963862B8AA38616
:10882000B9F83030E3861BF0CDFE84F838002F68AD
:10883000384613F03FFC0021A881E080384616F04E
:1088400087FAD6F804A02068214610F0B7F9AB8962
:10885000AAF806301C23DAF800408AF80430B8F190
:10886000000F40F0CC808AF81C805146204610F062
:10887000AFF9BB687A6895F85A00B5F80E80F568CC
:10888000674C934238BF1346C0F3C00103F1090A95
:1088900000F0070040F2E24303FB08F81BF0A8FCDD
:1088A000002202212D1A01200DF0D2FF484613F0BC
:1088B000CDF9A5FB044558A3D3E9002383462946F7
:1088C0002046FEF70BF8CDF80490B36855490091A7
:1088D00020F07F490BF10402A3EB0A03D2B24B4410
:1088E000012100200FF08EFB10F0FD0F0CD04E4A3E
:1088F0004E494F4840F23D332DF0F4FB404080F3A9
:1089000011884FF0030002DF4FF0000B5B4603229B
:108910000121CDF800B058460FF032FB384613F075
:10892000C9FBB36806463E48A3EB0A0AA8FB000150
:1089300039A3D3E90023FDF7D1FF19463D4B089336
:108940003D4B069340F26D33079709933B69804690
:10895000CDE904B3104600234FF47A72FDF7BEFF51
:10896000364B0722A9FB0331CDE9028002FB091136
:10897000E01A65EB01014FF47A720023FDF7AEFFB8
:108980000536F6B2CDE900905346324601215846ED
:108990000FF066FA10F0FD0F0CD0234A234924484B
:1089A00040F26E332DF09EFB404080F311884FF073
:1089B000030002DF0122022110460DB0BDE8F04F96
:1089C0000DF046BF04F11E011AF036F8A37FBDF882
:1089D0002C200A98C4F825000233A377A9F80420B4
:1089E00017E7114A1649124840F2BD232DF07AFBD1
:1089F000404080F311884FF0030002DFE4E66B7F14
:108A000043F040036B77281D19F00EFE4FF001086C
:108A1000E88328E7AFF300808D49FD1A07000000C6
:108A200000CA9A3B3122040074980600FC920600AA
:108A3000D48C060035220400652204008D49FD1AFD
:108A4000988F0600000000000538C3B2052B0CD833
:108A500070B580B20D4613F035FB044618B190F99D
:108A60003930002B03DA002070BD0020704790F8E9
:108A700076000F4EC0F3C00100F007001BF0B8FBFA
:108A80000C4A00F2B5500721E0FB0621104606A370
:108A9000D3E90023FDF722FF20F07F402860204625
:108AA00070BD00BFAFF300808D49FD1A07000000C4
:108AB00000CA9A3B8C49FD1A2DE9F04F93B0FF2470
:108AC0000B930B1D0A930023CDE90E330546164682
:108AD0008DF837409B464FF0040A1F46994698464A
:108AE00010AB0693564B0593564B03930FAB019374
:108AF0000EAB0020009302231093049002903346A3
:108B00000DF1370229460FF0C1FA022815D0109B4B
:108B1000CBB9FF2C26D03368BB4223D0BAF1000F6B
:108B200040D00AF1FF3AFF245FFA8AFA8DF8374005
:108B3000D6E7294600200FF0F5FA109B022BF8D05B
:108B4000109B002BE5D0404A404941484FF4F77351
:108B50002DF0C8FA404080F311884FF0030002DF87
:108B6000FF2CD8D19DF83700FF2829D011A9FFF795
:108B70006BFF0028B4D0FF2C0E9F119B0AD04146FA
:108B8000384609930FF0E8FA0A9B03EB090290427A
:108B9000099B17D8B8469DF837403768DDF83CB0D8
:108BA00099469DE72B49284A29484FF4FB732DF03D
:108BB00099FA404080F311884FF0030002DFB0E7DC
:108BC000FF2C34D024480721A9FB000301FB093105
:108BD00019A3D3E90023FDF781FE044600B1403418
:108BE0001E4AABF57423A3F51073934216D81A48A6
:108BF0000721A8FB000301FB08310FA3D3E90023E1
:108C0000FDF76CFE164BA3FB0B2304EB93440B9B6D
:108C1000044400201C6013B0BDE8F08F0BF1E87B2A
:108C20000BF5D43B08F1FF380BF5A57BDFE76FF0C0
:108C3000090013B0BDE8F08F00CA9A3B00000000A5
:108C40004125040045250400C0980600049906004B
:108C5000D48C06000C9906008D49FD1ABFBDF07F2B
:108C600083DE1B43000000002DE9F043C66847681F
:108C700073683D491A68D0F80090A7F57423A3F5EE
:108C800010738B4283B0804607D907F1E87707F568
:108C9000D43709F1FF3907F5A57773681169DD89C4
:108CA000CDF8049006F1100301AA0220FFF704FF9B
:108CB00000284ED10199A1EB09031B0237D40846C5
:108CC00049460FF049FA034628480721A3FB000252
:108CD00001FB032122A3D3E90023FDF7FFFD346943
:108CE0000444002C346109DB40F2E24305FB03F34A
:108CF000A3422FD2E41AA342FCD33461D8F8003047
:108D00001A48A3EB0903A3FB0002072101FB03217F
:108D100013A3D3E90023FDF7E1FD154BA3FB0737B0
:108D2000A0EB97402044306103B0BDE8F083484693
:108D30000FF012FA03460D480721A3FB000201FBC6
:108D4000032107A3D3E90023FDF7C8FD3469241AE2
:108D5000C7E73469002CD1D103B0BDE8F08300BF70
:108D600000CA9A3B00000000BFBDF07F8D49FD1A8C
:108D700083DE1B430000000010B5334C3349002351
:108D800004F1FF3C14F83320072A02EB820E05D8C9
:108D900011F83E206FF3451201F83E201CF83320F5
:108DA0006FF300020CF833200133082BEAD1284A74
:108DB000284C002313700A7863F300020A7091F8BC
:108DC000282063F3000281F8282091F8502063F3F3
:108DD000000281F8502091F8782063F3000281F8B6
:108DE000782091F8A02063F3000281F8A02091F888
:108DF000C82063F3000281F8C82091F8F02063F3E3
:108E0000000281F8F02091F8182163F3000281F844
:108E10001821114A9FED0A7B1370104B83ED007BE4
:108E20000F4B236028B1BDE810400E490E483DF0BD
:108E300093BCBDE810400C483DF09CBCAFF30080F3
:108E4000FFFFFFFFFFFFFFFFBDA800207CA7002062
:108E500098D400208CA6002097D400205036002003
:108E6000A0BB0D00013204002036002000000000ED
:108E70002DE9F04F8FB00DF137010446DFF8E0A087
:108E8000DFF8E0800DF136000FF020FF9DF836305E
:108E90009DF837B00B930FF05DF9DAF80060A6FB90
:108EA000085629A3D3E900230027814631462846E6
:108EB000FDF714FDCDE90777069420F07F44DAF83A
:108EC0000400234B0593A0FB08011FA3D3E9002353
:108ED000FDF704FD1F4B20F07F40A4FB0331072268
:108EE00002FB0411CDE90370E81A66EB01014FF4AF
:108EF0007A720023FDF7F2FC0097CDE901404B4662
:108F00000B985A4603210EF08FFF10F0FD0404D099
:108F10006FF08B000FB0BDE8F08F0F480F4A0023B1
:108F20002AF0AEFD20B9DAF80C000FB0BDE8F08FE2
:108F30009DF837209DF836000094234603210FF05A
:108F40001FF86FF07300E5E78D49FD1A0700000078
:108F5000513904008D49FD1A30A90020447B0B00D3
:108F600048A9002000CA9A3B38B50F4D04460FF0BF
:108F7000F1F8A9680FF0F0F8696803460B48B3FBF5
:108F8000F4F4A1FB00011C4405A3D3E90023FDF781
:108F9000A5FC20F07F40844294BF0020012038BD12
:108FA0008D49FD1A0700000048A9002000CA9A3B1D
:108FB000F0B5C468636883B00546002B63D11DF02B
:108FC0009BF800201DF0BEF8002108461DF0ACF80B
:108FD0000022252108201DF0EBF8454B019301A844
:108FE0001DF0CEF8434940F25B601DF079F9237A19
:108FF000C3F3420262F30613204623721BF004FD02
:109000001AF024FC58BB637A9B071FD127682E688F
:1090100038461BF08BF806446A6806F10901012006
:109020001DF0B8FA1DF0A4FB204612F0D1FB811C04
:109030003246C9B238461BF087F8054670BB204659
:109040001BF00EF888B9002003B0F0BD012019F024
:1090500071FF4178821C00781DF03CFAD6E7607AF7
:1090600010F0030018BF0120F1E7234A23492448E8
:1090700040F22C432DF036F8404080F311884FF039
:10908000030002DFDFE793F820309A0797D01D48EE
:1090900021461CF0EFFF1DF0DDF8D4E7164A1A490F
:1090A000174840F214432DF01DF8184B0721A5FB7B
:1090B000030301FB05310CA3D3E90023FDF70EFCEC
:1090C0001349024613482DF00DF8404080F31188F3
:1090D0004FF0030002DF104821461CF0CBFF1DF0CB
:1090E000B9F86FF08B00AFE700CA9A3B00000000B0
:1090F000D6BE898E55555500B89C0600408E060098
:10910000D48C0600D1420400548D06008D49FD1A0E
:10911000689D06003C9D0600D94504000000000043
:109120002DE9F041C46894F91630002B8CB0C0F2E0
:10913000FF80636805460E46002B40F0EE80A37D5D
:109140006FF30003A3751CF0D7FF00201CF0FAFF9B
:10915000002108461CF0E8FF0022252108201DF010
:1091600027F801200FF0B4FE0746002800F0C78062
:1091700007F11C001DF046F8874B0B930BA81CF061
:10918000FFFF864940F25B601DF0AAF8A07DC0F3A6
:10919000410025301AF0EAFF814821461CF06AFFA1
:1091A000A37D9B0603D46368002B00F0A580962066
:1091B0001DF0E4F900231A46194618461DF0F6F88A
:1091C0001AF044FB002838D1A37D13F0180F59D1B1
:1091D000D4F800802F6840461AF0A8FF07446A6858
:1091E00007F1090100201DF0D5F91DF0C1FA1DF0AD
:1091F0004DF9204612F038FD011DC9B240463A46ED
:109200001AF0A2FF8046002840F0998016B9636AE0
:10921000002B4ED1636843B1624B01220221002032
:109220009D600DF04BFB002835D120461AF018FF49
:10923000D0B900200CB0BDE8F081A07DC0F3C00023
:1092400019F078FE07460DF12B001AF077F97978BE
:109250008046BA1C38781DF03DF99DF82B0000229D
:1092600041461DF055FBB3E74F4A5049504840F284
:109270000B232CF037FF404080F311884FF00300A0
:1092800002DFD6E7012019F055FE4178821C0078F4
:109290001DF020F99CE7444A4649454840F2062320
:1092A0002CF020FF404080F311884FF0030002DFD4
:1092B000BBE7414A0792414A059240F2F3120093FC
:1092C0000892CDE90366CDE9016606943B46314636
:1092D00003220EF0A9FD10F0FD0F9BD0324A384951
:1092E00033484FF4FA732CF0FDFE404080F31188B0
:1092F0004FF0030002DF8DE71DF0B8F860E72A4A5F
:1093000030492B484FF4C5732CF0ECFE404080F3FD
:1093100011884FF0030002DF2AE7636893F82030DA
:10932000D90705D4636893F820309A077FF507AF13
:10933000254821461CF09EFE1CF08CFF79E71A4A56
:1093400022491B4840F2E5132CF0CCFE204B0721AC
:10935000A8FB030301FB08310DA3D3E90023FDF7AC
:10936000BDFA1C4902461C482CF0BCFE404080F36C
:1093700011884FF0030002DF184821461CF07AFEE6
:109380001CF068FF6FF08B0054E700BFAFF3008064
:1093900000CA9A3B00000000D6BE898E5555550084
:1093A00081940200B80C0020749D0600408E0600D7
:1093B000D48C0600488E060051510400F15104007F
:1093C00078900600049D0600D1420400548D0600EA
:1093D0008D49FD1AC09D06003C9D06002D500400DD
:1093E00038B504461BF0D2FDA37DA27DC3F3410333
:1093F000013303F00303032B08BF002363F342028E
:1094000014BF03F125002520A2751AF0AFFE636892
:109410000BB123694BB90EF09DFEC11C00201DF05D
:109420002DF9BDE838401DF0A3B91DF055F90546EA
:109430000EF090FEC11C00201DF020F91DF098F9DF
:109440001DF04AF929460EF087FE0B4A0346072114
:10945000A0FB020201FB032105A3D3E90023FDF7D2
:109460003DFA23691B1A236138BD00BFAFF30080AA
:1094700000CA9A3B000000008D49FD1A0000000060
:109480002DE9F0478AB004461CF016FFC0B250B96F
:109490001AF0C4FEC44821461CF0ECFD0AB0BDE839
:1094A000F0471CF0D7BE1CF027FF05461DF046F81C
:1094B00007461DF04DF881461DF084FA06461DF062
:1094C00063FA82461CF0FCFFEDB280461CF0DCFF24
:1094D0001AF0A4FE002DDDD001200FF0F9FC0546A6
:1094E000002800F04D8117F0FF07F6B240F0E3804E
:1094F000002E40F0DA804FF0FF093A464B463146E5
:1095000020461BF069FF0028C4D02A7F6168002331
:109510008DF823305FFA88F702F00F03002900F07E
:10952000EC80616891F82010880700F1E680072B35
:10953000B0D0A17D090740F14381002B40F0C480E9
:109540006B7F063B1F2BA5D804200FF0C1FC002821
:10955000A0D01DF015F9636A074643B9238C40F289
:10956000712202FB03F3B0FBF3F203FB1207236843
:109570001A698E4B0721A2FB030301FB023188A36A
:10958000D3E90023FDF7AAF96FF44A7C00EB0C0342
:10959000BB42FFF47FAF1CF069FF4846636819F0D7
:1095A000B3FFE37D9907804640F1E581002800F094
:1095B000E281824601271CF0ADFECDE9027A09ABBB
:1095C000049305F11E0301932B7FC3F3801301461F
:1095D000074600930022012320461BF017FF384660
:1095E0001CF016FE1CF05EFE002840F0CA81704898
:1095F00021461CF03FFD626892F8203043F00103E1
:1096000082F82030A37D43F08003A3750FF082FC25
:10961000172202714FF6FF72C28095F81CC0824675
:109620003B46CCF3401C00F11C0207F1200E1D68E4
:1096300058689968DF68D7601033734515605060CB
:10964000916002F11002F2D11B6813609AF81C308D
:10965000CAF808406CF345138AF81C301DF03CF83A
:10966000002ECAF81000099BCAF8143008BF4FF04A
:10967000FF098AF81990E37D13F0020303D0B8F1D3
:10968000000318BF01239AF81A2063F300028AF836
:109690001A200FF03FFCCAF80C00DAF8000051461F
:1096A0000AB0BDE8F0470FF063BC5FFA8AF019F02A
:1096B000B9FF814621E7A07D5FFA89F1C0F3C000C0
:1096C00019F046FF814618E7012B40F089806A7F38
:1096D0000C2A7FF4DFAE2A7FCDF8009019460023D4
:1096E0000193D20905F1240320461BF0C9FD00288F
:1096F0007FF42AAF2B7F03F00F03002B70D16B7F19
:10970000052B7FF6C7AE252B3FF6C4AEA27D02F037
:109710002102202A09D16268002A00F0C180052BAD
:109720007FF6B8AE252B3FF6B5AE63682BB12B7F25
:1097300003F00F03072B7FF4ADAE03209DF82380C9
:109740000FF0C6FB054600283FF4A4AE0FF0E2FB85
:109750004FF6FF73EB8005232B71002F3CD17F2048
:10976000AB7E2876002E08BF4FF0FF0968F3410357
:10977000286885F81990AB7629460FF0F9FB89E641
:109780000C4A0D490D4840F2C7232CF0ABFC404079
:1097900080F311884FF0030002DFA4E6AFF30080EE
:1097A00000CA9A3B00000000455004008D49FD1A94
:1097B00035520400749D0600049D0600D48C0600FA
:1097C000B9F1FF0F8DF82490C2F380184BD0227EA0
:1097D00091453FF4B2AE90E71CF062FEC0B2BFE725
:1097E000062B8CD04521D94011F0010139D1012B34
:1097F00010D16B7F0C2B7FF44DAE2A7FCDF80090FB
:109800000DF123030193D20905F1240320461BF037
:1098100037FD08BB2B7F03F00F03042B7FF43AAE18
:109820006B7F063B1F2B3FF635AEA37DDB077FF535
:1098300031AE1CF06FFD2B7F0278C3F38013B3EBC6
:10984000D21F7FF427AE0830062205F11E013DF03D
:1098500075FC00287FF41EAE6B7F002B7FF465AF94
:1098600018E66B7F5BE705F11E0A09AA51464046E0
:1098700019F08EFF00283FF43DAFE37D03F00103B4
:1098800043457FF437AF5146062204F108003DF00E
:1098900055FC00287FF42EAF2B7F03F00F034CE61E
:1098A000962007921CF06AFE079A10461CF036FDBF
:1098B00003200FF00DFB804600283FF4EBAD0FF0C6
:1098C00029FB4FF6FF73A8F80630052388F804300B
:1098D000002F64D17F23002E88F8183014BF4B4628
:1098E000FF2388F8193098F81A30D8F800006FF381
:1098F000410388F81A3041460FF03AFB1CF00AFD8C
:1099000006460322337862F3030333702B7F3278E9
:10991000C3F3801363F3C7120C233270484673708D
:1099200019F0F2FDE27D92073DD500283BD0317859
:10993000324641F0400102F8021B0168C6F80210ED
:1099400083889380D5F81E30B3606B8CB38130462A
:109950001CF05EFC1CF0A6FC002835D11CF008FFB2
:10996000A37D204843F001032146A3750AB0BDE85A
:10997000F0471CF07FBBA77D04F1190AC7F38017DD
:1099800019E6194A19491A4840F2A4432CF0AAFBD7
:10999000404080F311884FF0030002DF27E61CF0FF
:1099A0007FFDC3B297E7A37D3278C3F3801363F3DF
:1099B0008612334603F8022BD4F81920C6F8022089
:1099C000B4F81D209A80BDE7074A084908484FF4BB
:1099D000A5632CF087FB404080F311884FF0030013
:1099E00002DFBBE759500400749D06000C9D060081
:1099F000D48C0600000000002DE9F041C468A28963
:109A00004FF6FF739A4282B000F0C78005461BF004
:109A100001FE2B89628AE08A1A4492B21044637F65
:109A2000A28280B2411CE1825E064FF00001618299
:109A300004F1180100F18C8003F03F000B46A17F78
:109A4000009004F11F0018F0A7FD0646D4E90B238F
:109A50001344D4E90D0200210244E1626163A16A6A
:109A6000A26394F872208B4228BF0B4612F00402C6
:109A7000236377D01CF040FB00201CF063FB201D0B
:109A80001CF07EFB2389A17A40F25B6043EA01412E
:109A90001CF026FC30461AF069FB214658481CF0A1
:109AA000E9FA96201CF06AFD94F85A2094F85B00BD
:109AB000C2F3C003002102F0070200F007001CF00F
:109AC00075FC20461BF008FE27682E6838461AF001
:109AD0002DFB06446A6806F1090100201CF05AFDBE
:109AE00080461CF019FE00201CF030FE236B94F819
:109AF0005B0003F13002A36B00F00700012103EBD0
:109B000042051CF093FB4544054494F85B0000F0CB
:109B10000700022824D004280CBF4FF4BC7328236C
:109B200001211D441CF084FB28441CF0E7FDA189A1
:109B300005313246C9B238461AF006FB054698BBD5
:109B400020461AF08DFAD0B9002002B0BDE8F081AD
:109B50000A4603F03F03E18B18F06AFD064675E7FD
:109B60001823DDE7D4E917010CF03AFE002881D173
:109B700094F8723043F0040384F872307AE7214A93
:109B80002149224840F255132CF0ACFA404080F3B2
:109B900011884FF0030002DFD6E71D4821461CF074
:109BA00069FA1CF057FBCFE7164A1A49174840F2EA
:109BB0004B132CF097FA184B0721A5FB030301FB6D
:109BC00005310DA3D3E90023FCF788FE13490246B3
:109BD00013482CF087FA404080F311884FF00300BF
:109BE00002DF104821461CF045FA1CF033FB6FF0F1
:109BF0008B00AAE7AFF3008000CA9A3B0000000088
:109C000031590400409E0600408E0600D48C0600A8
:109C1000D1420400548D06008D49FD1A949E060021
:109C20003C9D0600AD420400F0B5C468A2894FF621
:109C3000FF739A4285B000F08B8005461BF0EAFC6A
:109C40002B89628AE08A1A4492B21044637FA2820E
:109C500080B2411CE1825E064FF00001618204F196
:109C600018015FD403F03F000B46A17F009004F180
:109C70001F0018F091FC0646204603A91BF0FAFDD0
:109C8000039B94F872101A7861F3C3021A70039A56
:109C900094F872301178C3F3400363F382011170BA
:109CA0001CF02AFA00201CF04DFA201D1CF068FA66
:109CB0002389A17A40F25B6043EA01411CF010FB6A
:109CC00030461AF053FA039920461BF0A7FD2146AF
:109CD00037481CF0CFF996201CF050FC94F85B003C
:109CE00000F007001CF01AFB27682E6838461AF0AF
:109CF0001DFA06446A6806F1090101201CF04AFCBD
:109D00001CF036FDA18905313246C9B238461AF039
:109D10001BFA054618BB20461AF0A2F950B90020DC
:109D200005B0F0BD0A4603F03F03E18B18F080FC5C
:109D30000646A1E71F4A2049204840F203132CF0B1
:109D4000D1F9404080F311884FF0030002DFE6E7CD
:109D50001B4821461CF08EF91CF07CFADFE7154AFF
:109D600018491648F9232CF0BDF9174B0721A5FB1C
:109D7000030301FB05310CA3D3E90023FCF7AEFD7F
:109D80001249024612482CF0ADF9404080F3118888
:109D90004FF0030002DF0F4821461CF06BF91CF066
:109DA00059FA6FF08B00BBE700CA9A3B0000000035
:109DB00065570400A09E0600408E0600D48C060065
:109DC000D1420400548D06008D49FD1AF09E060014
:109DD0003C9D0600AD4204002DE9F0472DED028BBD
:109DE0009FED498B4A4E84B004464FF02003EFF3B9
:109DF000118783F31288BFF36F8FD4F8C8508DB9E1
:109E0000022104F1E0003CF0F0FB002843D10023E4
:109E10008DED008B029304F1D00239463D482AF0C3
:109E20000DFBE2E7D4F8CC202B68C4F8C83095428B
:109E300008BFC4F8CC30D4F8E03043F00203C4F8D3
:109E4000E030EB6823F0040343F00103EB606B6840
:109E500087F31188BFF36F8F284698474FF0200390
:109E6000EFF3118983F31288BFF36F8FEB689907C3
:109E700023F0010219D4EA60D4F8E03023F00203A1
:109E8000C4F8E03089F31188BFF36F8FDB05ACD4E1
:109E90002AF0B4F9A9E704F1D805002201212846E7
:109EA0003CF0A9FD0028F8D1B1E7306823F00303A6
:109EB000EB600028E0D00027D0F80080BA460028E8
:109EC000DAD04268954201460BD1016897B97268B1
:109ED0003160824200D1716040F808AB29F0AAFDE0
:109EE0003946B8F1000F0BD0D8F8002040460F4695
:109EF0009046E4E739607268824208BF7760EBE71A
:109F00004246F3E7AFF30080FFFFFFFFFFFFFFFFD5
:109F100028C00020D3D50020014829F08DBE00BF05
:109F2000A002002007B53CF0A3FD4FF47A72A0FB1D
:109F3000020302FB0131C00B074A40EA41401060B6
:109F400000234FF400420548CDE900232AF054FCD9
:109F5000002003B05DF804FBF8490020D810002071
:109F6000014B187800F0BCBA44C10020044B1A78A9
:109F7000824202D01870FFF7F3BF0020704700BF85
:109F800044C1002008B53CF073FD4FF47A72A0FB89
:109F9000020302FB0131C00B044A40EA4140106059
:109FA000BDE808400020FFF7E1BF00BFF8490020EE
:109FB00008B53CF05DFD4FF47A72A0FB020302FB92
:109FC0000131084AC30B126843EA41439B1A47F226
:109FD0003052934204DDBDE808400120FFF7C6BFC0
:109FE00008BD00BFF8490020014B1878704700BF3A
:109FF00044C10020F8B5044610B900252846F8BD34
:10A000000378002BF9D00F4E0F4FBE420FD30D4EE9
:10A01000BE42F2D230683CF03BF930B1356821469F
:10A020002868FCF7C5FD0028E8D00436F0E7306862
:10A030003CF02EF918B135682B68A342DED0043607
:10A04000E3E700BF80890700A089070030B5184CFE
:10A050008DB00022002303A9204629F0A7FB08B1F8
:10A060000DB030BDDDE90415039800F055F8002867
:10A07000EFDBFF238DF81830B5FA85F35B09079005
:10A080008DF820303CF0F4FC4FF47A72A0FB020310
:10A0900002FB0131C00B40EA4140C90B8DE80300CF
:10A0A00006ABCDE90A010FCB00F034FAD1E700BFCF
:10A0B000901300201FB583F00103CDE90112039333
:10A0C0000022002301A9044829F01AFB034829F0C3
:10A0D000B3FD05B05DF804FB90130020FC4900209F
:10A0E00010B5044678B1094909483CF0F1FAA36873
:10A0F00008491B6820469847A3689B680BB1204617
:10A100009847002010BD6FF01500FBE74DA002003E
:10A11000FC490020B5A0020001EB00114A2905D836
:10A12000044B53F8210008B1013870476FF0150057
:10A13000704700BF6C79060030B51C4C04EB00146E
:10A140008FB0606883683A21DB68984758BB6068C5
:10A150006189836804AD1B692A46984718BB95E856
:10A1600003000123069307AB83E803006389ADF87E
:10A1700024303CF07DFC4FF47A75A0FB053205FBE2
:10A180000121DB0B43EA4143C90BCDE90A31237BB3
:10A190008DF830300EAB13E90F008DE80F0006ABE1
:10A1A0000FCB00F0DDF90FB030BD00BFC0020020C2
:10A1B000094BBFF35B8F53E8002F22F0010143E806
:10A1C00000100028F7D1BFF35B8FD30702D5002022
:10A1D000FFF7B2BF704700BF0C4A002008B5054921
:10A1E000486828B183689B6813B1034A08319847CF
:10A1F000002008BDC0020020FDA1020008B50E4BE2
:10A20000994218D13CF004F988B1BFF35B8F0B4B36
:10A2100053E8001F41F0010143E80012002AF7D182
:10A22000BFF35B8F0648BDE8084029F005BDBDE8D7
:10A230000840FFF781BF08BDC80200200C4A00207B
:10A24000B002002001289ABF024B03EB400000201F
:10A25000704700BF7C0F0020014829F0EDBC00BF13
:10A26000D002002008B500F0D9FE28B1837A1BB9CE
:10A27000024A136801331360002008BD104A002011
:10A280002DE9F041194DDFF878802C78D8F80000DE
:10A290000134E4B22C70FCF775F8154B0022FCF782
:10A2A00015FA064620460F46FCF77CF8114B124C77
:10A2B0000022FCF70BFA0B46024639463046FCF703
:10A2C00005FAFCF7EBFA23780C4EC0B283423070EB
:10A2D00003D000F06BF9337823702B78042B82BF06
:10A2E00000232B70C8F80030BDE8F08145C1002084
:10A2F0000000144000004E4046C1002076100020AF
:10A30000104A0020084B13B500241C70074B4FF473
:10A3100000421C7000230648CDE900232AF06CFAA5
:10A32000204602B010BD00BF7610002045C10020BD
:10A3300080110020014B1878704700BF7610002074
:10A34000F8B50F4D0F4E761B07460C4605EBC105C1
:10A35000C6F3C706A64201DC00200CE02A683B6871
:10A360009A4209D13C716B6838461B68984718B10E
:10A37000431E012BF0D9F8BD01340835EAE700BFD0
:10A38000E87207006873070000B58BB0064B074AF8
:10A39000282168462AF008FB05490122684603F097
:10A3A00025FF0BB05DF804FBEAB80600F4B8060020
:10A3B00047C100202DE9F041466807693179F388EB
:10A3C00004463068D0F810E0D0F80880DEF800507D
:10A3D000DA0754BF43F4B01383F4D0134FF0010CE9
:10A3E00023F480120CFA01FCDB074CBF45EA0C0594
:10A3F00025EA0C05CEF80050D8F80030984760BB2D
:10A4000004F048F8164803F081FF054610BB1549D3
:10A4100015483CF0A1F9154803F022FF7B785BB9A1
:10A4200001233B70002200230F4829F06DFCA36834
:10A430001B680BB120469847318959B140F2E7308B
:10A440004FF47A72002300EBC1300021FCF746FA8A
:10A4500029F056FF2846BDE8F0816FF00405F9E7C2
:10A46000E002002089A302001816002007B90600A8
:10A4700008B54FF4F0120023024829F079FC00EAF5
:10A48000E07008BD18160020F7B50C4616461149B5
:10A4900001AA1F462CF0ABF9B0B1019BA3B9012C66
:10A4A00015D10D4D224629463846B047002806DB17
:10A4B0002B780A486C7023B12AF015FE002003B0F7
:10A4C000F0BD2AF022FEF9E76FF00100F7E76FF028
:10A4D0001500F4E7EAB8060047C100203C75060005
:10A4E0001FB50023CDE90233044B8DF80C0001A801
:10A4F00001932AF0E2FD05B05DF804FBB47A060092
:10A500000268034B9A420CBF08300020704700BF1E
:10A51000B47A060084B030B589B00CAC84E80F0082
:10A52000002301930CAD084B00930FCD02AC0FC478
:10A5300095E8030084E8030068462AF0BEFD09B0F0
:10A54000BDE8304004B07047B87A06000268034B9B
:10A550009A420CBF08300020704700BFB87A06004E
:10A5600084B030B58BB00EAC84E80F0000230193AB
:10A570000EAD084B00930FCD02AC0FC495E80F0051
:10A5800084E80F0068462AF098FD0BB0BDE8304023
:10A5900004B07047BC7A06000268034B9A420CBFB5
:10A5A00008300020704700BFBC7A06001FB50023AA
:10A5B00002930390034B019301A82AF07EFD05B09E
:10A5C0005DF804FBC47A06001FB50023CDE9023311
:10A5D000044B8DF80C0001A801932AF06EFD05B024
:10A5E0005DF804FBC87A06000268034B9A420CBF70
:10A5F00008300020704700BFC87A060082B038B526
:10A6000004A981E80C000546114828F035FE0446EF
:10A61000A0B16B68012B0CD0022B05D0A3B9BDE80B
:10A62000384002B02AF097BD2AF09CFD0028204651
:10A63000F5DCBDE8384002B02AF086BD6FF00400BA
:10A64000BDE8384002B070476FF08500F8E700BF02
:10A65000EAB8060082B010B502A981E80C000446F1
:10A660000B4828F009FE78B16368022B04D0002063
:10A67000BDE8104002B070472AF074FD0028CCBF3E
:10A68000002001206060F2E76FF00400F0E700BFF7
:10A69000EAB806000D4A52F82030013342F8203063
:10A6A0000B4A0123117883400B430A490978DBB236
:10A6B000137023EA01030849084A097850780B43CC
:10A6C000181A537018BF0120704700BF144A0020A9
:10A6D0004BC1002049C100204AC100208410002045
:10A6E00010B5114A52F82030002B19DD013B42F819
:10A6F00020300E4A2BB913780121814023EA01034F
:10A7000013700B480B4B047810780B4A5978127869
:10A7100020EA040010435870401A18BF012010BDF1
:10A720006FF01500FBE700BF144A00204BC100206A
:10A7300049C10020841000204AC10020044A01239E
:10A7400012788340D8B213401B1A584258417047C0
:10A750004BC1002010B5084B084A1870084B5178BF
:10A760001C78084B1B7823EA040318435070401AE6
:10A7700018BF012010BD00BF4AC100208410002076
:10A7800049C100204BC10020074B00221A70074B23
:10A79000074A1978074B50781B7823EA0103181AE7
:10A7A000537018BF012070474AC1002049C10020E2
:10A7B000841000204BC10020A0F1E003072B03D838
:10A7C0002030C0B2FFF766BF064B062213F8011F08
:10A7D00019B1013AFAD10020704718700028F8D05A
:10A7E000F9E700BF86100020A0F1E003072B10B4AA
:10A7F00005D820305DF8044BC0B2FFF771BF0023CD
:10A80000064A194612F8014F0133A04208BF1170E1
:10A81000062BF7D100205DF8044B7047861000200E
:10A82000A0F1E003072B03D82030C0B2FFF786BFAA
:10A83000064A002312F8011F884204D00133062B78
:10A84000F8D1002070470120704700BF861000201B
:10A85000024B00221A605A60704700BF851000202A
:10A8600010B50849002301EB4302B2F8014024B1BE
:10A870000133062BF7D1002010BDA2F801000028FB
:10A88000F6D0F8E77710002030B50023074C1946C2
:10A8900004EB43020133B2F80150854204BF51700A
:10A8A0009170062BF4D1002030BD00BF771000203E
:10A8B000024B00221A605A609A607047781000209C
:10A8C000074A002302EB4301B1F80110814204D092
:10A8D0000133062BF6D1002070470120704700BFDE
:10A8E000771000200048704784100020004870470F
:10A8F0007710002082B02DE9F84308A900680E9C6B
:10A9000081E80C0017462AF0D6FB056909982368F0
:10A9100066683A384200F3B114183C4405EBC40EA3
:10A92000DFF84890DEF80410314455F8346091FBAC
:10A93000F9F833440C9E434436884FF4B47C09FB49
:10A940001811BCFBF6FC93FBFCF60CFB163345F828
:10A950003430CEF8041002443A440632002045F860
:10A960002260BDE8F84302B0704700BF40420F00CC
:10A970002DE9F04395B0142200210FA83CF044FCCF
:10A98000DFF8D4804FF47A77002200230FA94046E5
:10A9900028F00CFF002849D10F9E02903CF068F887
:10A9A000A0FB070C07FB01CCC50B45EA4C459DF805
:10A9B0004C30CDE903654FEADC3C13F0010FCDF8D4
:10A9C00014C002AB0FCB06AC84E80F000DF12809D0
:10A9D0002FD0CDE90765CDF824C094E80F0089E8B1
:10A9E0000F0010982AF067FB50B183689C683CB157
:10A9F000DDE90C018DE8030010A899E80C00A047E0
:10AA0000139C012CC0D9C4F35E044FF4004540F2FE
:10AA1000E73000214FF47A720023E5FB0401FBF7D5
:10AA20005DFF02460B460B4829F06EF915B0BDE8F4
:10AA3000F083CDE90765CDF824C094E80F0089E8DC
:10AA40000F0010982AF037FB0028D9D08368DC6803
:10AA5000CDE700BF000000200013002010B58AB031
:10AA600001AC84E80E0005A8112200213CF0CCFBCB
:10AA700094E8070006AB83E807009DF830300D9A94
:10AA800043EA4203099309480022002305A928F05C
:10AA900037FE002804DB06483BF06AFE10B10020B8
:10AAA0000AB010BD0248FFF763FFF8E7001300206B
:10AAB0000000002008B5094B1B7823B1012B06D0FC
:10AAC0006FF0850008BDBDE808402AF0CDBEFFF755
:10AAD00009FFBDE80840013000F064BE584A00207C
:10AAE00008B5094B1B7823B1012B06D06FF0850008
:10AAF00008BDBDE808402AF0BFBEFFF7F7FEBDE87D
:10AB00000840013000F074BE584A00200249034852
:10AB1000012203F06BBB00BF4CC10020FDB9060051
:10AB200070B500250646056000F0E2FB044680B1E2
:10AB300001F046FB022806D000F0F2FC0123706011
:10AB40003370304670BD064B1B78012BF4D028467D
:10AB5000F5E701F035FB0228EED123462046EEE76B
:10AB60004CC1002073B503F095FC0C4803F0CEFBFC
:10AB7000044678B90A490B480B4E3BF0EDFD6D4693
:10AB80000A4803F06DFB2846FFF7CAFF95E803006B
:10AB900086E80300204602B070BD00BF1803002005
:10ABA0000DAB020048160020584A002011BA0600DA
:10ABB00082B00DF1080C0CE9030019469DF8003035
:10ABC00010461BB1012B05D0054A00E0054A02B032
:10ABD00029F0EABE019B044A02B029F0E5BE00BF9D
:10ABE00026BA06001BBA06001FBA060030B589B0A7
:10ABF00001AD124C2846FFF793FF94E80C0095E84E
:10AC000003002AF0CBFBB0B9FFF722FEFFF750FE9E
:10AC1000FFF750FFFFF764FF95E803000A2305AA3A
:10AC200084E80300FFF7C4FF94E8030003AB83E864
:10AC3000030000F02DF809B030BD00BF584A0020D5
:10AC400070B50C4615460B4900221E462BF0CFFD71
:10AC500008B9002070BD012C08D1074922463046B2
:10AC6000A8470028F6DDFFF7C1FFF2E76FF01500F7
:10AC7000F0E700BF07BA06004CC10020034A0346B4
:10AC800092E8030083E8030018467047584A002002
:10AC90007FB56B4683E8030093E80300002206AB10
:10ACA00003E90300039202A8034A02922AF005FA7C
:10ACB00007B05DF804FB00BF687B060002281FB5E3
:10ACC00030D830BB11B9002004B010BD174B1A6842
:10ACD000012383401343154C9A422360F3D08DF82F
:10ACE00000008DF801103BF0C3FE4FF47A72A0FB18
:10ACF000020302FB0131C00B40EA4140C90BCDE920
:10AD0000020104AB13E90F0004B0BDE8104000F0ED
:10AD100053B9064B1A680029DAD10123834022EA8D
:10AD20000303D8E76FF01500CEE700BF484B0020C3
:10AD3000014B19682AF0A7BB484B002002289ABF94
:10AD4000024B53F820000020704700BF747B0600C0
:10AD50002DE9F04715464FF42E724A431F460C2347
:10AD600003FB05223C4B2DED028B134480460E461F
:10AD700093E807008CB005AC84E807009DED168BC6
:10AD80002AF099F98146002860D00598CDE9086538
:10AD90008DED0A8B2AF08FF98368D3F804A0BAF1FD
:10ADA000000F09D00CAB13E90300DDE908238DE89F
:10ADB00003002046D04758BBD9F808301B78012B38
:10ADC00013D0022B29D0002B42D1CDE908658DED9F
:10ADD0000A8B0CAB029713E903008DE803002B46A6
:10ADE000324620462AF06BFB12E0CDE908658DED76
:10ADF0000A8B02970AAA92E803008DE8030008ABC9
:10AE0000B8F1FF0F0CCBECD0214640462AF0BAFC3B
:10AE10000CB0BDEC028BBDE8F087CDE908658DED87
:10AE20000A8B02970AAE96E803008DE8030008AD8E
:10AE300095E80C00214600202AF0A4FC029796E831
:10AE400003008DE8030095E80C00CAE70120DFE766
:10AE50006FF08500DCE700BF807B06002DE9F34D35
:10AE6000DDE90AABDFF8488007460D4616461AB101
:10AE70000E4B1B6848F82130022458F82510E0B228
:10AE80002AF001FB30B9013CF7D26FF0850002B027
:10AE9000BDE8F08DCDE900AB33462A462146384661
:10AEA000FFF756FF0028F2DDEDE700BF484B00201A
:10AEB000604A00202DE9F04F2DED028B3D4C8FB004
:10AEC00000EB4003CDE907129DED1A8B04EB8304E0
:10AED00000F13A03064602254FF0000906930CAF35
:10AEE000A0692AF0E8F8002859D03046FFF7AAF9FF
:10AEF0008046069BA0690A958DED0C8B0B932AF07A
:10AF0000DAF800284BD08368D3F810A0BAF1000F0C
:10AF100045D0079B0493089BCDE9028397E8030083
:10AF20008DE8030004F1180B0DF1280898E80C00D7
:10AF30005846D047002832DBB9F1000F18D1E8B2EB
:10AF4000FFF7F6FE80F00100C0B2C3B20993069B82
:10AF5000A0690B938DED0C8B0A952AF0ACF8099B38
:10AF600040B96FF015000FB0BDEC028BBDE8F08F5B
:10AF70000120EAE78268D2F814A0BAF1000F02D1EA
:10AF80006FF08500EFE7029397E803008DE8030078
:10AF9000584698E80C00D047002807D0E3DB013D75
:10AFA0006B1CA4F10C049BD10020DCE74FF00109DD
:10AFB000F5E700BF3003002010B58AB06C4684E886
:10AFC0000F0000230593064B049394E80F000AAC8E
:10AFD00004E90F0004A82AF070F80AB010BD00BF01
:10AFE000A883060084B030B589B00CAC84E80F00AB
:10AFF000002301930CAD084B00930FCD02AC0FC49E
:10B0000095E8030084E8030068462AF056F809B082
:10B01000BDE8304004B07047B08306000268034BBF
:10B020009A420CBF08300020704700BFB083060072
:10B030007FB56B4683E8030093E80300002206AB6C
:10B0400003E90300039202A8034A02922AF035F8AA
:10B0500007B05DF804FB00BFB4830600074B1A7805
:10B06000074B82B0162102FB013301938DF80020BB
:10B0700002AB13E9030002B0FFF7DABF54C10020AE
:10B0800055C1002002490348012203F0AFB800BFB8
:10B0900054C10020BABA060070B503788AB00446DD
:10B0A0000E4607AD032B20D8DFE803F002191B1D65
:10B0B00011492846FBF786FD059563780493A3782C
:10B0C0000393E37802932379019363790093A3793F
:10B0D0000A4A1E21304629F067FC0AB070BD0849B3
:10B0E000E7E70849E5E70849E3E7084A0A2128466F
:10B0F00029F05AFCE0E700BFCDBA0600F6BA060018
:10B10000D4BA0600DBBA0600E5BA0600EFBA0600BC
:10B110002DE9F0418AB00D46164628496A46044694
:10B120001F462BF064FBF8B10098E8B10A2201A990
:10B1300029F0FEFC019B1B7803BB162D1ED1C4B267
:10B14000042C1BD8DFF888806C432A4608EB0401E6
:10B150003846B047002813DD04F10F0002A940442F
:10B16000FFF79AFF00200BE015496A4620462BF0B6
:10B170003EFB78B1009B6BB9012D04D06FF0150038
:10B180000AB0BDE8F0810F492A463846B04700EAC8
:10B19000E070F5E70C496A4620462BF028FB0028B2
:10B1A000E0D000980028DDD0072DE7D13BF0C2FFAA
:10B1B0000028D7D105492A46E7E700BF19BB06009A
:10B1C000BEBA060054C1002022BB06004DC10020BB
:10B1D00055C1002010B592B004462DF022FF01A900
:10B1E000FFF75AFF09A9204607F092F89DF825308D
:10B1F000012B13D10A4828F01FFD20462DF011FF26
:10B20000084B19780F22162313FB01230649194412
:10B210002AF0F5F910B9054828F00EFD12B010BD5E
:10B22000B803002054C1002055C10020C8030020ED
:10B2300008B5074B074819780F22162313FB012383
:10B24000184405492AF0DBF9B0FA80F0400908BD3E
:10B2500054C1002055C100209EBE06002DE9F041DA
:10B260000C468EB005464FF0160806A9204615FB81
:10B2700008F7FFF711FF0D4E216807F10F02931930
:10B28000B150A2889A80A2799A7109492A4601A8E8
:10B2900029F0B6FB4246F11901A802F0A7FF0548C4
:10B2A00028F0CAFC0EB0BDE8F08100BF55C10020F7
:10B2B00037BB0600C803002038B50F23162414FB43
:10B2C0000034094B09491C44054620462AF097F9E9
:10B2D00048B12146002005F06BF828460349BDE837
:10B2E0003840FFF7BBBF38BD55C100209EBE0600E9
:10B2F00010B5124B12491A7816240F2314FB02348E
:10B30000104B1C448AB020462AF079F910B900206D
:10B310000AB010BD2146002006F07AFF044600283E
:10B32000F5D001A906F0F4FF20462DF05CFD9DF854
:10B330002400831E58425841EAE700BF54C1002050
:10B340009EBE060055C10020F0B58DB0FFF770FF1E
:10B3500098B9FFF7CDFF80F001035B00DBB2214D10
:10B360002A7803EB0213112B09DC022B2DD0102BB2
:10B3700023D0002420460DB0F0BD0223EFE7202BA0
:10B380001BD0122BF5D105F0F9FE00232B700446DB
:10B390000028EFD1144F0FCF02AE0FC63B68134900
:10B3A000336004220094234602A805F0B5FE04464B
:10B3B0000028DFD102232B70DBE705F0DFFE00233E
:10B3C0002B7004460028D4D0D4E7074E0FCE07AC2C
:10B3D0000FC433682360002304490093042207A8A4
:10B3E000E3E700BFC3C1002000780600D083060059
:10B3F00030B593B005462DF014FE01A90446FFF7C1
:10B400004BFE09A9284606F083FF9DF82530012B45
:10B4100005D1FFF70DFF214618B904F0C9FF13B09D
:10B4200030BD034B1878FFF719FFFFF78DFFF6E7E4
:10B4300054C1002030B593B00D4609A9044606F06A
:10B4400067FF9DF82530012B0BD120462DF0E9FD3B
:10B4500001A9FFF721FE0E4B00221A701DB1FFF764
:10B4600073FF13B030BDFFF76FFF20462DF0D9FDFD
:10B47000084B19780F22162313FB012306491944A0
:10B480002AF0BDF80028ECD1044828F0D5FBE8E705
:10B49000C3C1002054C1002055C10020C8030020B2
:10B4A00010B5002005F0A0F80446D8B902F0F2FF6C
:10B4B0000D4802F02BFF0446A0B90C490C483BF0A4
:10B4C0004BF90C4802F0CCFE0B4802F0C9FE0B48C9
:10B4D00006F078FE0A4807F073F90A4807F08AF97F
:10B4E000FFF732FF204610BDA003002085B0020008
:10B4F0007816002047BB06004BBB060080030020E7
:10B50000640300205403002008B5044B1878FFF7AB
:10B51000D3FEBDE80840FFF717BF00BF54C10020AD
:10B52000014B1878704700BF54C10020042808B5AB
:10B5300010D80A4B1A7882420AD018704FF4F012D1
:10B540000023074828F014FCFFF7FEFEFFF786FDF6
:10B55000002008BD6FF02100FBE700BF54C10020B0
:10B5600078160020054B187805230130B0FBF3F363
:10B5700003EB8303C01AC0B2FFF7D8BF54C1002049
:10B58000054B187805230430B0FBF3F303EB83037A
:10B59000C01AC0B2FFF7CABF54C10020042838B592
:10B5A0001DD80F23162414FB00340E4B0E491C44E7
:10B5B00020462AF024F818B96FF01204204638BD4E
:10B5C0002146002006F024FE05460028F4D0132171
:10B5D0002DF029FD044628462DF005FCEEE76FF01E
:10B5E0002104EBE755C100209EBE0600044B054830
:10B5F00019780F22162313FB01231844704700BF4C
:10B6000054C1002055C1002070B5164D90B00446BD
:10B610000146284629F0F3FFE8B108A92846FFF7BC
:10B620003BFD1149284629F0EAFF0646B0B96946B4
:10B630002046FFF731FD23682B60A388AB80A379F8
:10B640000A49AB71324608A829F0DAF907222146E7
:10B6500008A802F0CBFD002010B070BD6FF00B0009
:10B66000FAE700BF4DC100209EBE06004EBB06009B
:10B670001FB54D240294044C0194BDF81840009469
:10B680002EF0F6FF04B010BD89BB060007B5064BCF
:10B6900000930649064805234FF4407228F0D2FA79
:10B6A000002003B05DF804FBF0830600D8D500202D
:10B6B000A816002010B5FFF799FF06490722044697
:10B6C0003BF03CFD28B121460020BDE8104006F0CB
:10B6D0009FBD10BD9EBE0600F0B5164E164F89B038
:10B6E000002200236946304628F060F8054608B17C
:10B6F00009B0F0BDFFF7DEFF04460028F8D018229D
:10B70000294602A83BF080FD08230DEB03012046EB
:10B710000397CDF810D0ADF8143008F0B3FF013026
:10B7200003D1022120462DF002FC20462DF05BFBC8
:10B73000D6E700BF601300205C8406002DE9F041CD
:10B74000164FDFF85C808AB001AE0022002331463C
:10B75000384628F02BF8054610B10AB0BDE8F08154
:10B76000FFF7A8FF04460028F7D01822294604A8AE
:10B770003BF04AFD0C2304A92046CDE90586ADF82F
:10B780001C3008F07FFF013003D1022120462DF04C
:10B79000CEFB20462DF027FBD7E700BF301300205B
:10B7A000AC84060037B5054640F6CD42014600237D
:10B7B0000C4827F0A5FF044678B110F10B0F09D112
:10B7C000002200236946074827F0F0FF2846FFF7CC
:10B7D000E9FF0446204603B030BD034903483AF070
:10B7E000A4FFF7E760130020E8030020A81600205C
:10B7F00030B5054685B040F6CD42014600230D48E0
:10B8000027F07EFF044678B110F10B0F09D100221A
:10B81000002301A9074827F0C9FF2846FFF7E8FFE2
:10B820000446204605B030BD034904483AF07DFF88
:10B83000F7E700BF30130020D8030020A81600202F
:10B840007FB50023CDE90433044BADF8140003A801
:10B85000039329F032FC07B05DF804FB288506004D
:10B860000268034B9A420CBF08300020704700BFAB
:10B870002885060008B500F01BFDBDE80840014919
:10B880003AF053BFB804002030B585B0154CA56818
:10B890002D21EB682046984708BB2D212B6902AA71
:10B8A00020469847D8B900F08BFC0F4D041E2B782A
:10B8B000029818BF012483420C4B02D11A78A2428D
:10B8C0000DD0C0B228701C7002F068FC38B92B781B
:10B8D0008DF804308DF805400198FFF7B1FF05B0F1
:10B8E00030BD00BF8C750600C6C10020C5C1002058
:10B8F00007B508483AF0CCFC48B14FF4F0120023E9
:10B90000CDE9002304480022002328F075FF03B08E
:10B910005DF804FB8C7506001011002008B5054881
:10B920003AF0B6FC18B1FFF7E3FF002008BD6FF056
:10B930001200FBE78C75060010B50446FEF7E0FD2B
:10B9400088B1FEF751FB30B10138C0B2012806D9E9
:10B950006FF0850010BDFFF7CBFF0020FAE7074826
:10B960003BF0CDF8F9E72046FEF73EFE0028EFD089
:10B9700000F09EFC02493AF0D8FEE9E710110020E1
:10B98000B8040020014B1878704700BFC6C10020E2
:10B99000014B1878704700BFC5C1002030B50C4B73
:10B9A000187887B090B90B4A52686AB90A4D0122DB
:10B9B0001A700FCD01AC0FC42B680849236001A891
:10B9C00005F03EFE00EAE07007B030BD0020FBE766
:10B9D000C7C100204C4B00201478060021C0020093
:10B9E00007B50023074900934FF40072052306486A
:10B9F00028F028F9054806F0E5FB03B05DF804EBF4
:10BA0000FFF7CCBFD8D8002090170020D804002022
:10BA100084B010B588B00AAC84E80F001148214604
:10BA200040F6CD42002327F06BFE0446A8B110F18A
:10BA30000B0F0CD10022002303A90A4827F0B6FE01
:10BA40000E9B00930AAB0FCBFFF7E2FF04462046A4
:10BA500008B0BDE8104004B07047034903483AF00D
:10BA600064FEF4E7C0130020C804002090170020F3
:10BA700070B503788AB004460E4607AD032B20D874
:10BA8000DFE803F002191B1D11492846FBF79AF85D
:10BA9000059563780493A3780393E378029323795D
:10BAA000019363790093A3790A4A1E21304628F056
:10BAB0007BFF0AB070BD0849E7E70849E5E7084998
:10BAC000E3E7084A0A21284628F06EFFE0E700BFB6
:10BAD000CDBA0600F6BA0600D4BA0600DBBA0600F4
